:1000000045C0000060C000005EC000005CC0000091
:100010005AC0000058C0000056C0000054C0000084
:1000200052C0000050C000004EC000004CC0000094
:100030004AC00000A9C0000046C0000044C0000043
:1000400042C0000040C000003EC000003CC00000B4
:100050003AC0000038C0000036C0000034C00000C4
:1000600032C0000030C000002EC000002CC00000D4
:100070002AC0000028C0000026C0000024C00000E4
:1000800022C0000020C000001EC0000011241FBEBE
:10009000CFEFD0E4DEBFCDBF11E0A0E0B1E0ECE9EE
:1000A000F3E000E00BBF02C007900D92A430B1074F
:1000B000D9F721E0A4E0B1E001C01D92AD30B20754
:1000C000E1F755D169C19CCF181619065CF0089567
:1000D000000021503109E1F74F5F5F4F841795070A
:1000E00019F4089540E050E027E033E0F1CF2E9876
:1000F0008BB92F9A00002F9882E090E0E5CF089509
:1001000084E690E0E1DF88E3F2DF86E0F0DF8FE075
:10011000EEDF81E0ECDF8AE090E0D6CF08952E9A02
:100120008BB92F9A00002F9881E090E0CDCF0895F1
:10013000813118F48158DBCF08958155D8CF0895C7
:100140008BE0809381008DE790E09093890080930D
:10015000880082E080936F001092850010928400E6
:100160008091000190910101A0910201B0910301E1
:100170008093070190930801A0930901B0930A01AD
:100180008FB780688FBF08951F920F920FB60F929E
:1001900011248F939F93AF93BF9380910701909108
:1001A0000801A0910901B0910A010197A109B109C3
:1001B0008093070190930801A0930901B0930A016D
:1001C000892B8A2B8B2B99F481E080930B018091F2
:1001D000000190910101A0910201B091030180936F
:1001E000070190930801A0930901B0930A01BF9100
:1001F000AF919F918F910F900FBE0F901F90189508
:1002000060930001709301018093020190930301B8
:1002100060930701709308018093090190930A018C
:10022000089580910C01823059F128F4882349F017
:10023000813059F06BC08330E9F1843009F450C04B
:1002400065C081E080930C018AC000990BC0809149
:100250000401882319F081508093040184E0809385
:100260000C0178C0809105018F5F8093050192E0B9
:1002700090930C0190930601823009F05BC04FC04F
:10028000009909C084E080930C01809104018F5F84
:10029000809304015FC0809105018F5F8093050109
:1002A00093E090930C0194E090930601823009F062
:1002B00041C03BC000990BC080910401882319F014
:1002C00081508093040184E080930C0143C08091AD
:1002D00005018F5F8093050181E080930C013FC091
:1002E00000990BC080910401882319F081508093FC
:1002F000040184E080930C012DC0809105018F5F83
:100300008093050181E080930C0129C010920C01BB
:1003100011C089E080930601109205010BC08AE0AC
:10032000809306011092050105C08CE080930601C0
:10033000109205018091060185B9809104018930F0
:1003400028F4805DECDE80E0F3CE0895E8DE80E006
:10035000EFCE08951092060110920501EBCF81E0D7
:100360008093060180910501823021F7D2CF11B828
:100370008FEF82B984B915B88AB91BB8C1DE64EFB2
:1003800071E080E090E03CDFDBDE10920C0149DFA1
:0C0390008AEF90E099DEFBCFF894FFCFDD
:04039C00010000005C
:00000001FF
