S01F00004C6162315F415652546F6F6C636861696E5265766965772E737265636A
S113000045C0000060C000005EC000005CC000008D
S11300105AC0000058C0000056C0000054C0000080
S113002052C0000050C000004EC000004CC0000090
S11300304AC000006DC0000046C0000044C000007B
S113004042C0000040C000003EC000003CC00000B0
S11300503AC0000038C0000036C0000034C00000C0
S113006032C0000030C000002EC000002CC00000D0
S11300702AC0000028C0000026C0000024C00000E0
S113008022C0000020C000001EC0000011241FBEBA
S1130090CFEFD0E4DEBFCDBF11E0A0E0B1E0ECEBE8
S11300A0F2E000E00BBF02C007900D92A430B1074C
S11300B0D9F721E0A4E0B1E001C01D92AC30B20751
S11300C0E1F7E5D0F9C09CCF8BE0809381008DE708
S11300D090E0909389008093880082E080936F0081
S11300E0109285001092840080910001909101018A
S11300F0A0910201B091030180930601909307013E
S1130100A0930801B09309018FB780688FBF089549
S11301101F920F920FB60F9211248F939F93AF9358
S1130120BF938091060190910701A0910801B091BD
S113013009010197A109B109809306019093070170
S1130140A0930801B0930901892B8A2B8B2B99F476
S113015081E080930A018091000190910101A091B6
S11301600201B09103018093060190930701A093CB
S11301700801B0930901BF91AF919F918F910F90A6
S11301800FBE0F901F9018956093000170930101AA
S11301908093020190930301609306017093070119
S11301A08093080190930901089580910B01823096
S11301B011F128F4882341F0813051F040C083309C
S11301C071F18430B1F13BC081E080930B0154C0E4
S11301D0009904C084E080930B0149C082E08093BD
S11301E00B0180930501809104018F5F80930401CA
S11301F08230C9F52DC0009904C084E080930B01BE
S113020036C083E080930B0184E0809305018091E4
S113021004018F5F80930401823029F51FC0009987
S113022004C084E080930B0122C081E080930B0121
S113023023C0009B1CC081E080930B011DC0109261
S11302400B0111C089E080930501109204010BC0D9
S11302508AE0809305011092040105C08CE080932C
S11302600501109204018091050185B90895109249
S1130270050110920401F7CF81E08093050180917C
S113028004018F5F80930401823069F7DBCF11B8DA
S11302908FEF82B984B915B864EF71E080E090E023
S11302A073DF12DF10920B0180DF80910A01882333
S10F02B0E1F310920A01F8CFF894FFCF9C
S10702BC0100000039
S9030000FC
